S0140000536D6172745F48616E6765722E7372656355
S113000045C0000061C000005FC000005DC000008A
S11300105BC0000059C0000057C00000AEC700001C
S1130020D3C7000051C000004FC000004DC0000005
S11300304BC0000049C0000047C000004FC700008B
S113004043C0000041C000003FC000003DC00000AC
S11300503BC0000039C0000037C0000035C00000BC
S113006033C0000031C000002FC000002DC00000CC
S11300702BC0000029C0000059C7000025C00000A3
S113008023C0000021C000001FC0000011241FBEB7
S1130090CFEFD0E1DEBFCDBF12E0A0E0B1E0ECE8ED
S11300A0F2E200E00BBF02C007900D92A831B10745
S11300B0D9F722E0A8E1B2E001C01D92AC37B20743
S11300C0E1F7A9D70C9444119BCF3E9A86B187607F
S11300D086B9379A86B186B908951092980087E652
S11300E08093990088E980939A000895EBE9F0E001
S11300F0908195FFFDCF80939C000895CF93DF936B
S1130100EC018881882329F02196F0DF89918111FF
S1130110FCCFDF91CF910895809119020895109238
S113012019028AE192E00895CF93DF931F92CDB72D
S1130130DEB780919C00898389818A3019F0898196
S11301408D3061F4E0911802F0E0E65EFD4F10821C
S11301501092180281E0809319020EC089818A30BE
S113016059F080911802E82FF0E09981E65EFD4F86
S113017090838F5F809318020F90DF91CF91089541
S1130180E4E6F0E0908121E030E002C0220F331F6A
S11301908A95E2F72095292320830895209163000E
S11301A0682F70E030E0082E02C0359527950A9438
S11301B0E2F7A9014170552720FD0CC0FB01E65A66
S11301C0FD4F9081911106C0FB01E65AFD4F81E07D
S11301D0808322C09091630021E030E002C0220FAE
S11301E0331F8A95E2F7892F90E0822393232817FF
S11301F0390769F4FB01E65AFD4F8081813051F4DF
S1130200FB01E65AFD4F108241E050E005C040E09A
S113021050E002C040E050E0CA01089585B58F7CEB
S113022085BD0895BF9A85B58B6785BD88EC83BD70
S1130230F5CF089585B5806385BD089580E383BDBA
S1130240F9DF2FEF85EA9EE0215080409040E1F7EE
S113025000C0000085E583BD2FEF85EA9EE02150B4
S113026080409040E1F700C0000088E483BD2FEF98
S113027085EA9EE0215080409040E1F700C00000F4
S1130280CDCF089589EE83BDD5DF2FEF82E597E0CA
S1130290215080409040E1F700C0000088E483BD15
S11302A02FEF82E597E0215080409040E1F700C0B5
S11302B00000B4CF08958FEF82B9EAE8F0E08081BE
S11302C089608083EBE8F0E08081816080838081B5
S11302D0886A808308951092870010928600109295
S11302E08500109284000895109287001092860071
S11302F090E09093850080938400089590E090931B
S113030087008093860010928500109284000895DF
S113031090E090938300809382000895FC018AE02A
S11303208A95F1F700C090819F5F9083691728F444
S113033084E08093700281E0089580E0089544B3DE
S113034021E030E0B90102C0660F771F8A95E2F719
S1130350CB01462B44BB95B3982B95BB95B3282F63
S11303602095922395BB7FEF29EF30E07150204018
S11303703040E1F700C0000095B3892B85BB089598
S11303800F931F93CF93DF931F92CDB7DEB71982DC
S113039094B301E010E002C0000F111F8A95E2F748
S11303A0802F8095982394BB06C06EE1CE01019600
S11303B0B5DF811106C083B390E080239123892B9C
S11303C0A1F7198280917002882339F01AC062E380
S11303D0CE010196A3DF811106C083B390E0802390
S11303E09123892BA1F3198206C062E3CE01019601
S11303F095DF811106C083B390E080239123892B7C
S1130400A1F70F90DF91CF911F910F9108955F9203
S11304106F927F928F929F92AF92BF92CF92DF9210
S1130420EF92FF920F931F93CF93DF9300D000D0EE
S113043000D0CDB7DEB74C01562E1982409371021D
S1130440F89410927002862F7ADF852D99DF8091BF
S11304507002811171C001E010E0052C02C0000F90
S1130460111F0A94E2F7C12CD12CAA24A394B12C15
S1130470612C712CE2E0F0E0EC0FFD1FEC0DFD1D92
S113048010820F2EF7E0EF2EF12CF02D06C064E160
S1130490CE01019643DF811107C083B390E080232E
S11304A09123892BA1F305C00F2EF5E0CF2ED12C7B
S11304B0F02D198280917002811131C02AEB2A95A6
S11304C0F1F700C083B390E0802391238017910754
S11304D041F4C5010E2C02C0880F991F0A94E2F75B
S11304E001C0862DE2E0F0E0EC0FFD1FEC0DFD1DD8
S11304F09081892B808306C069E1CE0101960EDFCD
S1130500811107C083B390E080239123892BA1F745
S113051005C00F2EF5E0CF2ED12CF02D198241E02D
S1130520E41AF10808F0B9CFEFEFCE1ADE0AF5E0CD
S1130530CF16D1040CF49ECF24B381E090E002C026
S1130540880F991F5A94E2F7922F982B94BB95B376
S1130550892B85BB789480917002811157C080915A
S11305607102813009F05DC02A813C814B81822F68
S113057090E0840F911D830F911D4D81840F911D77
S11305804E8150E08417950709F446C083E08093B8
S1130590700242C081E080937002353318F436C093
S11305A0353308F182E08093700230C08C8190E092
S11305B0982F88272D81822B2A8130E0322F222701
S11305C04B81242B2C5E3F4F2131344068F121E0D4
S11305D02093700280579E4F813B9440B8F082E094
S11305E08093700213C08091700281110FC0FE01CC
S11305F03296D4019E012A5F3F4F81918D93E21779
S1130600F307D9F7809170028823A1F0F4011082D6
S11306101182128213820EC02F50213508F0BACFF6
S1130620BFCF823021F7C2CF80579E4F813B944089
S1130630F0F2D5CF26960FB6F894DEBF0FBECDBF2D
S1130640DF91CF911F910F91FF90EF90DF90CF90AA
S1130650BF90AF909F908F907F906F905F90089520
S1130660EF92FF920F931F93CF93DF9300D000D0AC
S1130670CDB7DEB77C018B01642F422FCE010196EA
S1130680C6DE809171028130A1F48981885F84364D
S113069018F4D7018C9303C083E6F70180838A8121
S11306A0D70111968C938B81F80180838C8181838F
S11306B046C0823009F043C0E981F0E0FE2FEE2706
S11306C08A81E82B4B8150E0542F44278C81482B9E
S11306D09F01ADECBCEC0E945A0E969587959695B9
S11306E0879596958795D7018C939C01220F331F8C
S11306F0880F991F880F991F880F991F820F931FC6
S1130700E81BF90B1196EC939A01ADECBCEC0E943A
S11307105A0E969587959695879596958795F8019F
S113072080839C01220F331F880F991F880F991F04
S1130730880F991F820F931F481B590B41830F90F9
S11307400F900F900F90DF91CF911F910F91FF9019
S1130750EF9008952F923F924F925F926F927F9203
S11307608F929F92AF92BF92CF92DF92EF92FF92BD
S11307700F931F93CF93DF93CDB7DEB76C970FB66C
S1130780F894DEBF0FBECDBF482E562E8E010F5FEC
S11307901F4F5E018FE0A80EB11C88248394912C16
S11307A0E12CF12CC12CD12C0BC09FEFE91AF90AD2
S11307B00E5F1F4FE2E0AE0EB11CFFEF8F1A9F0ACF
S11307C0252D442DB501C8014BDFE114F10449F492
S11307D03980F8018081C80ED11C232C712C612C26
S11307E0E4CFF8018081381608F46E2C821508F4E1
S11307F07E2CC80ED11CF7E08F169104B4F2E62DBE
S1130800F0E0EE0FFF1F81E090E08C0F9D1FE80FDA
S1130810F91F8081B601681B7109E72DF0E0EE0F26
S1130820FF1F81E090E08C0F9D1FE80FF91F80816E
S1130830681B710980E090E00E94470D20E030E0E1
S113084040EA50E40E94B30C6C960FB6F894DEBFF5
S11308500FBECDBFDF91CF911F910F91FF90EF900D
S1130860DF90CF90BF90AF909F908F907F906F90CC
S11308705F904F903F902F90089583B1806C83B91F
S113088089B7806C89BF8AB7806F8ABF08959091B9
S1130890680281E08927809368028823F1F08AB78F
S11308A08ABF809167028823A1F0809162029091AF
S11308B06302A0916402B09165020196A11DB11D6D
S11308C08093620290936302A0936402B0936502E2
S11308D0089581E08093660208958AB780618ABF93
S11308E008959091670281E08927809367028823A5
S11308F0E9F08AB78ABF809168028823A1F08091C9
S1130900620290916302A0916402B0916502019623
S1130910A11DB11D8093620290936302A0936402AF
S1130920B093650208951092660208958AB78064B0
S11309308ABF08956091620270916302809164029B
S113094090916502089560936202709363028093AC
S11309506402909365020895AD980895A498A59AA9
S11309600895AD98AD9A0895AD9AAD980895F4DFC1
S113097083B38295817091E089270895CF92DF92A5
S1130980EF92FF92CF93DF93F2DF8823E9F3C7E17D
S1130990D0E0C12CD12C7601E4DF83B38295817041
S11309A090E0A0E0B0E00C2E04C0880F991FAA1FAD
S11309B0BB1F0A94D2F7C82AD92AEA2AFB2A21970C
S11309C058F7CFDFD1DFD701C601072E77E1B695FF
S11309D0A795979587957A95D1F7702D8170682F93
S11309E06195862F90E0A0E0B0E0B82FAA27992760
S11309F08827BC01CD016C297D298E299F29DF918F
S1130A00CF91FF90EF90DF90CF9008958F929F92B7
S1130A10AF92BF92CF92DF92EF92FF920F931F9308
S1130A20CF93DF9318161906C4F48C01C0E0D0E00C
S1130A30C12CD12C76014C01990FAA08BB089EDF6A
S1130A40A50194010E94380EC20ED31EE41EF51EA9
S1130A5021960C171D0799F703C0C12CD12C7601E0
S1130A60C701B601DF91CF911F910F91FF90EF90D5
S1130A70DF90CF90BF90AF909F908F900895C6DF86
S1130A806093720270937302809374029093750260
S1130A9008950F931F93BADF0091720210917302AD
S1130AA02091740230917502601B710B820B930BC1
S1130AB0613071052FEF8207920718F060E070E053
S1130AC0CB011F910F9108950F931F93CF93DF9341
S1130AD08C01EB01DEDFDBD72091000130910101B5
S1130AE040910201509103013ED7A5D768837983D1
S1130AF08A839B83C801CDDFCAD72091000130913E
S1130B00010140910201509103012DD720E030E012
S1130B1048EC52E40E94D50D8ED724E630E040E044
S1130B2050E00E94380E6C837D838E839F83DF9117
S1130B30CF911F910F910895AF980895A698A79A01
S1130B400895AF98AF9A0895AF9AAF980895F4DFD7
S1130B5083B386FB882780F991E089270895CF9293
S1130B60DF92EF92FF92CF93DF93F1DF8823E9F3D3
S1130B70C7E1D0E0C12CD12C7601E3DF83B386FB3F
S1130B80882780F990E0A0E0B0E00C2E04C0880F24
S1130B90991FAA1FBB1F0A94D2F7C82AD92AEA2A86
S1130BA0FB2A219750F7CDDFCFDFD701C601072EEF
S1130BB077E1B695A795979587957A95D1F7702D96
S1130BC08170682F6195862F90E0A0E0B0E0B82F87
S1130BD0AA2799278827BC01CD016C297D298E2954
S1130BE09F29DF91CF91FF90EF90DF90CF900895F0
S1130BF08F929F92AF92BF92CF92DF92EF92FF9229
S1130C000F931F93CF93DF9318161906C4F48C0126
S1130C10C0E0D0E0C12CD12C76014C01990FAA0878
S1130C20BB089DDFA50194010E94380EC20ED31E9D
S1130C30E41EF51E21960C171D0799F703C0C12C5D
S1130C40D12C7601C701B601DF91CF911F910F918D
S1130C50FF90EF90DF90CF90BF90AF909F908F90D8
S1130C600895C6DF609376027093770280937802CA
S1130C709093790208950F931F93BADF009176023F
S1130C80109177022091780230917902601B710BE8
S1130C90820B930B613071052FEF8207920718F0D6
S1130CA060E070E0CB011F910F9108950F931F93A3
S1130CB0CF93DF938C01EB01DEDFE9D620910401B1
S1130CC03091050140910601509107014CD6B3D6ED
S1130CD0688379838A839B83C801CDDFD8D620912A
S1130CE004013091050140910601509107013BD662
S1130CF020E030E048EC52E458D79DD624E630E0BA
S1130D0040E050E0B5D76C837D838E839F83DF9171
S1130D10CF911F910F91089580937000089584EAF4
S1130D2080937400E4E7F0E080818823ECF7089571
S1130D308093730084E880937400E4E7F0E080819A
S1130D408823ECF70895CF93DF93D82FC62FE7DFDE
S1130D508D2FEEDF8C2FECDF84E980937400DF911C
S1130D60CF910895EF92FF920F931F93CF93DF9348
S1130D7000D000D0CDB7DEB7282F207F30E1839F8D
S1130D80C0011124922F9D60998329602A83982F92
S1130D909D609B8389608C838E010F5F1F4F7E0152
S1130DA085E0E80EF11CF80161918F018EE4CBDF40
S1130DB00E151F05C1F70F900F900F900F90DF9144
S1130DC0CF911F910F91FF90EF900895EF92FF92B2
S1130DD00F931F93CF93DF9300D000D0CDB7DEB72E
S1130DE0282F207F30E1839FC0011124922F9C6023
S1130DF0998328602A83982F9C609B8388608C83C6
S1130E008E010F5F1F4F7E0185E0E80EF11CF80193
S1130E1061918F018EE497DF0E151F05C1F70F90C6
S1130E200F900F900F90DF91CF911F910F91FF9032
S1130E30EF90089580E197E26FDF2FEF80E792E073
S1130E40215080409040E1F700C0000083E3BEDF02
S1130E5082E3BCDF88E2BADF8CE0B8DF86E0B6DF8D
S1130E6081E0B4DF8FE39CE90197F1F700C0000053
S1130E7008950F931F93CF93FC018081882351F031
S1130E808F01C0E06FDFCF5FF801EC0FF11D8081AF
S1130E908111F8CFCF911F910F91089581706F70D8
S1130EA090E4899F600D1124862F80588FCF089578
S1130EB0CF93DF93EA01F2DFCE01DBDFDF91CF9145
S1130EC00895D898109208010895D89AB3DF81E064
S1130ED08093080108958091080108951F920F924C
S1130EE00FB60F9211240BB60F922F933F934F938B
S1130EF05F936F937F938F939F93AF93BF93EF937E
S1130F00FF937FD49BD4FF91EF91BF91AF919F91B9
S1130F108F917F916F915F914F913F912F910F909E
S1130F200BBE0F900FBE0F901F9018951F920F923B
S1130F300FB60F9211240BB60F922F933F934F933A
S1130F405F936F937F938F939F93AF93BF93EF932D
S1130F50FF93EAD8FF91EF91BF91AF919F918F9149
S1130F607F916F915F914F913F912F910F900BBEA5
S1130F700F900FBE0F901F9018951F920F920FB6EF
S1130F800F9211240BB60F922F933F934F935F93BD
S1130F906F937F938F939F93AF93BF93EF93FF933D
S1130FA076DCFF91EF91BF91AF919F918F917F91EB
S1130FB06F915F914F913F912F910F900BBE0F90C6
S1130FC00FBE0F901F9018951F920F920FB60F929D
S1130FD011240BB60F922F933F934F935F936F930C
S1130FE07F938F939F93AF93BF93EF93FF9379DC9A
S1130FF0FF91EF91BF91AF919F918F917F916F91ED
S11310005F914F913F912F910F900BBE0F900FBEA8
S11310100F901F901895CF93DF93CDB7DEB7CD57C0
S1131020D1090FB6F894DEBF0FBECDBF7894D09A25
S11310304CDF53D840D949D8F5D8D7D3ACD38EDCBC
S11310407DDD1BDC81E090E09BD810927B02109246
S11310507A028BE0E9E0F1E0DE01119601900D9255
S11310608A95E1F786E0E4E1F1E0DE015396019030
S11310700D928A95E1F7AE014F5F5F4F60E080E02B
S113108017DFAE014D5E5F4F60E081E011DF84E168
S113109090E0F5DC84E190E0E4DDD0D8212CEE96FC
S11310A01FAEEE97312CE5961CAE1DAE1EAE1FAEE4
S11310B0E597ED961CAE1DAE1EAE1FAEED97812CCE
S11310C0912C54019E012D5E3F4FE1963FAF2EAF10
S11310D0E1978E010B5D1F4FA8D32B013C0180913A
S11310E07B02811151C014D9ECDEBD98BE01695A4E
S11310F07F4F85E090E0E8DCBE01615A7F4F85E0D8
S113110090E0D4DD6B96CCACDDACEEACFFAC6B9771
S1131110A3968CAD9DADAEADBFADA397C80ED91E41
S1131120EA1EFB1E3BE0C316D104E104F10438F0CF
S1131130311005C081E080937B02C7DE10C043E319
S1131140C416D104E104F10450F451E0351207C08F
S113115084E190E094DC84E190E083DD312CFF9223
S1131160EF92DF92CF928AE191E09F938F931F9346
S11311700F93AFD5C8010E947E0057D30FB6F894E1
S1131180DEBF0FBECDBFBDC280917A02823009F4AA
S1131190AEC030F4882359F0813009F483C08BC287
S11311A0833009F444C1843009F452C284C2BE01BC
S11311B0695A7F4F85E090E087DCBE01615A7F4F1A
S11311C085E090E073DD6B96CCACDDACEEACFFACAF
S11311D06B97A3968CAD9DADAEADBFADA397C80E76
S11311E0D91EEA1EFB1EFF92EF92DF92CF9288E295
S11311F091E09F938F93A1E0B0E0AC0FBD1FBF932C
S1131200AF9367D580E1E7E3F1E0DE015396019007
S11312100D928A95E1F722E040E0BE0167597F4FC5
S1131220CE0189599F4F1CDA00D31F9285E28F9318
S1131230A9968FADA9971F928F93A8968FADA89763
S11312401F928F9387E491E09F938F931F930F9343
S113125040D5C8010E947E00FF92EF92DF92CF92A8
S11312608EE591E09F938F931F930F9332D5C8011E
S11312700E947E000FB6F894DEBF0FBECDBF3320B0
S113128009F403C281E080937A0260E070E0CB014C
S11312905ADB0E944201ED96CCAEDDAEEEAEFFAE5F
S11312A0ED9709C280E52AD88FE0EFE6F1E0DE0190
S11312B0119601900D928A95E1F78FE0EEE7F1E047
S11312C0DE01539601900D928A95E1F733DB643F7A
S11312D071408105910508F4EEC10E946B0182E022
S11312E080937A0260E070E0CB012DDBE4C1BD9A0B
S11312F021E2421623E052066104710440F081E0C9
S1131300EE963FADEE973827EE963FAFEE97AF9649
S11313108FADAF971F928F93AE968FADAE971F92FE
S11313208F931F9285E28F93AD968FADAD971F92E9
S11313308F93AC968FADAC971F928F934DE851E08D
S11313405F934F93A1E0B0E0AC0FBD1FBF93AF9389
S1131350C0D4E596BFADE597BF93E496EFADE497AF
S1131360EF93E396FFADE397FF93E2962FADE297F9
S11313702F9341EA51E05F934F93E1969FADE1973C
S11313809F93E096AFADE097AF93A3D40FB6F894D4
S1131390DEBF0FBECDBF1F922F9220EB31E03F93F3
S11313A02F931F930F9395D4C8010E947E0023941A
S11313B0E9968CAD9DADAEADBFADE9970196A11D8B
S11313C0B11DE9968CAF9DAFAEAFBFAFE9970F905B
S11313D00F900F900F900F900F90EE969FADEE9799
S11313E0992361F08EE1E9D1AFEFB9E6E8E1A150CC
S11313F0B040E040E1F700C000000BC08AE5DDD159
S1131400FFEF29E638E1F15020403040E1F700C019
S1131410000045E0421508F04EC180917A02843004
S113142009F43AC183E080937A02212C44C185EB0C
S113143091E00E947E00BE01695A7F4F85E090E0F2
S113144043DBBE01615A7F4F85E090E02FDC6B9651
S1131450CCACDDACEEACFFAC6B97A3968CAD9DAD84
S1131460AEADBFADA397C80ED91EEA1EFB1EED9606
S11314708CAD9DADAEADBFADED978C199D09AE0998
S1131480BF09E5962CAD3DAD4EAD5FADE597281790
S113149039074A075B0730F4E5968CAF9DAFAEAFD2
S11314A0BFAFE59722E040E0BE0167597F4FCE0110
S11314B089599F4FD5D821E041E0BE0163597F4F40
S11314C0CE0185599F4FCCD8A9968FADA9971F926D
S11314D08F93A8968FADA8971F928F93AD968FADDB
S11314E0AD971F928F93AC968FADAC971F928F934D
S11314F0E5963FADE5973F93E4964FADE4974F9360
S1131500E3965FADE3975F93E2968FADE2978F9397
S1131510ADEBB1E0BF93AF931F930F93DAD3C80140
S11315200E947E00AB968FADAB971F928F93AA96C5
S11315308FADAA971F928F931F92F5E2FF93A996FE
S11315408FADA9971F928F93A8968FADA8971F92DE
S11315508F9381EE91E09F938F9321E030E02C0FE5
S11315603D1F3F932F93B5D380EF91E09F938F93CB
S1131570E1963FADE1973F93E0964FADE0974F93EF
S1131580A8D30FB6F894DEBF0FBECDBFAE968FAD15
S1131590AE971F928F93AC968FADAC971F928F939B
S11315A0AB968FADAB971F928F93AA968FADAA97E8
S11315B01F928F931F9295E29F93A9968FADA9973F
S11315C01F928F93A8968FADA8971F928F9381E057
S11315D092E09F938F931F930F937BD3C8010E9434
S11315E07E000FB6F894DEBF0FBECDBFE9962CADDA
S11315F03DAD4EAD5FADE9972D3331054105510544
S113160078F084E080937A02A8968FADA8978B3403
S113161068F0E9961CAE1DAE1EAE1FAEE9974BC036
S1131620A8968FADA8978B3458F406C0E9961CAEE3
S11316301DAE1EAE1FAEE99784E080937A023BC0D4
S113164080917A028430B9F182E080937A0233C0C7
S113165080E50E9474016ED9653F71408105910552
S1131660E8F00E946B0110927A0210927B02212C06
S1131670E5961CAE1DAE1EAE1FAEE597ED961CAEF4
S11316801DAE1EAE1FAEED9716C0ED96CCAEDDAE10
S1131690EEAEFFAEED970FC0212C0DC0212CE596C8
S11316A01CAE1DAE1EAE1FAEE597ED961CAE1DAE74
S11316B01EAE1FAEED970E948C00882379F00E9425
S11316C08F0024E7DC012C9381E080937B020E944D
S11316D0CE00892B61F43324339415C081E00E9439
S11316E0CE00892B71F0332009F452C002C0332498
S11316F0339484E080937A0260E070E0CB0123D9D4
S113170002C03320B9F0B5E6CB16D104E104F104EC
S113171020F08FEF0E9488010DC0E3E3CE16D104C0
S1131720E104F10420F088EC0E94880103C084EBFA
S11317300E948801481859086A087B08F5EF4F167B
S1131740F1E05F066104710408F4C6CCC4DB8823AD
S113175009F4C2CCAE014F5F5F4F60E080E0A8DBCC
S1131760AE014D5E5F4F60E081E0A2DB5ED04B01D5
S11317705C0161E081E00E94AA0322E040E0BE0136
S113178067597F4FCE0189599F4F0E943003A4CCE3
S113179033243394B8CFBD9A8FB582608FBD8EB594
S11317A088618EBD8FB580688FBD8EB583608EBD18
S11317B087E893E197BD86BD0895682F70E080E0C7
S11317C090E067D120E030E044E353E4CCD020E063
S11317D030E04AEF53E4E9D120E030E048EF52E44E
S11317E05ED029D17BBD6ABD089583B7846083BF71
S11317F083B7886083BF87B7826087BF8AEF81BF62
S1131800089580916C0290916D02A0916E02B09146
S11318106F020196A11DB11D80936C0290936D021D
S1131820A0936E02B0936F02089560916C02709160
S11318306D0280916E0290916F02089560916C0226
S113184070916D0280916E0290916F0228EE33E0E8
S113185040E050E00DD2672B682B692BF1F48091A6
S11318606B028F5F8C3318F480936B02089510928F
S11318706B0280916A028F5F8C3318F480936A0242
S1131880089510926A02809169028F5F883118F47A
S11318908093690208951092690208955058BB27F5
S11318A0AA270ED048C139D130F03ED120F031F40E
S11318B09F3F11F41EF42EC10EF4E095E7FB24C102
S11318C0E92F4AD180F3BA17620773078407950793
S11318D018F071F49EF562C10EF4E0950B2EBA2F48
S11318E0A02D0B01B90190010C01CA01A001112422
S11318F0FF27591B99F0593F50F4503E68F11A16CE
S1131900F040A22F232F342F4427585FF3CF46955E
S113191037952795A795F0405395C9F77EF41F1680
S1131920BA0B620B730B840BBAF09150A1F0FF0F4A
S1131930BB1F661F771F881FC2F70EC0BA0F621F36
S1131940731F841F48F4879577956795B795F79526
S11319509E3F08F0B3CF9395880F08F09927EE0FB8
S11319609795879508950CD0E6C0DED040F0D5D089
S113197030F021F45F3F19F0C7C0511110C1CAC043
S1131980EBD098F39923C9F35523B1F3951B550B69
S1131990BB27AA2762177307840738F09F5F5F4F3E
S11319A0220F331F441FAA1FA9F333D00E2E3AF07F
S11319B0E0E830D091505040E695001CCAF729D099
S11319C0FE2F27D0660F771F881FBB1F26173707E8
S11319D04807AB07B0E809F0BB0B802DBF01FF2718
S11319E093585F4F2AF09E3F510568F08DC0D7C0D1
S11319F05F3FECF3983EDCF3869577956795B79552
S1131A00F7959F5FC9F7880F911D9695879597F96C
S1131A100895E1E0660F771F881FBB1F62177307E5
S1131A208407BA0720F0621B730B840BBA0BEE1FFA
S1131A3088F7E095089598D088F09F5790F0B92FD3
S1131A409927B751A0F0D1F0660F771F881F991F0F
S1131A501AF0BA95C9F712C0B13081F09FD0B1E045
S1131A6008959CC0672F782F8827B85F39F0B93F55
S1131A70CCF3869577956795B395D9F73EF4909511
S1131A808095709561957F4F8F4F9F4F0895E8948F
S1131A9009C097FB3EF490958095709561957F4FB2
S1131AA08F4F9F4F9923A9F0F92F96E9BB27939560
S1131AB0F695879577956795B795F111F8CFFAF470
S1131AC0BB0F11F460FF1BC06F5F7F4F8F4F9F4FA1
S1131AD016C0882311F096E911C0772321F09EE8FF
S1131AE0872F762F05C0662371F096E8862F70E065
S1131AF060E02AF09A95660F771F881FDAF7880F3F
S1131B009695879597F9089597F99F6780E870E00F
S1131B1060E008959FEF80EC089500240A9416165F
S1131B20170618060906089500240A9412161306C7
S1131B30140605060895092E0394000C11F4882355
S1131B4052F0BB0F40F4BF2B11F460FF04C06F5F71
S1131B507F4F8F4F9F4F089557FD9058440F551F47
S1131B6059F05F3F71F04795880F97FB991F61F01B
S1131B709F3F79F087950895121613061406551F92
S1131B80F2CF4695F1DF08C0161617061806991FFE
S1131B90F1CF86957105610508940895E894BB27F3
S1131BA066277727CB0197F908950BD0C4CFB5DF0B
S1131BB028F0BADF18F0952309F0A6CFABCF112493
S1131BC0EECFCADFA0F3959FD1F3950F50E0551FD8
S1131BD0629FF001729FBB27F00DB11D639FAA277E
S1131BE0F00DB11DAA1F649F6627B00DA11D661FCD
S1131BF0829F2227B00DA11D621F739FB00DA11DEE
S1131C00621F839FA00D611D221F749F3327A00DA7
S1131C10611D231F849F600D211D822F762F6A2F43
S1131C2011249F5750408AF0E1F088234AF0EE0FC8
S1131C30FF1FBB1F661F771F881F91505040A9F7D5
S1131C409E3F510570F060CFAACF5F3FECF3983E02
S1131C50DCF3869577956795B795F795E7959F5F3C
S1131C60C1F7FE2B880F911D9695879597F90895D6
S1131C70A1E21A2EAA1BBB1BFD010DC0AA1FBB1F8C
S1131C80EE1FFF1FA217B307E407F50720F0A21BFE
S1131C90B30BE40BF50B661F771F881F991F1A946B
S1131CA069F760957095809590959B01AC01BD0195
S1131CB0CF010895A29FB001B39FC001A39F700DEF
S1131CC0811D1124911DB29F700D811D1124911D40
S1131CD008950F931F93CF93DF93CDB7DEB72E975D
S1131CE00FB6F894DEBF0FBECDBF0D891E8986E006
S1131CF08C831A8309838FEF9FE79E838D83AE01C4
S1131D00475E5F4F6F89788DCE01019610D0EF81C9
S1131D10F885E00FF11F10822E960FB6F894DEBFFF
S1131D200FBECDBFDF91CF911F910F9108952F92D8
S1131D303F924F925F926F927F928F929F92AF9257
S1131D40BF92CF92DF92EF92FF920F931F93CF93A4
S1131D50DF93CDB7DEB72B970FB6F894DEBF0FBE77
S1131D60CDBF6C017B018A01FC011782168283813D
S1131D7081FFBFC1CE0101963C01F6019381F701B9
S1131D8093FD859193FF81917F01882309F4ADC16F
S1131D90853239F493FD859193FF81917F018532DA
S1131DA021F4B60190E0D6D1E8CF912C212C312C2E
S1131DB0FFE1F315D8F08B3279F038F4803279F002
S1131DC08332A1F4232D20611DC08D3261F0803354
S1131DD069F4232D216016C0832D8260382EE32DF3
S1131DE0E4603E2E2AC0F32DF8601DC037FC2DC0E0
S1131DF020ED280F2A3040F08E32B9F436FC75C13C
S1131E00232D2064322E19C036FE06C08AE0989E27
S1131E10200D1124922E11C0EAE02E9E200D1124D3
S1131E20222EF32DF0623F2E08C08C3621F4832D30
S1131E308068382E02C0883641F4F70193FD8591FD
S1131E4093FF81917F018111B3CF982F9F7D95548A
S1131E50933028F40C5F1F4F9FE399830DC08336A2
S1131E6031F0833771F0833509F055C020C0F80193
S1131E70808189830E5F1F4F88248394912C5301A2
S1131E8012C02801F2E04F0E511CF801A080B1806D
S1131E9036FE03C0692D70E002C06FEF7FEFC5010D
S1131EA04ED14C018201F32DFF773F2E15C028013E
S1131EB022E0420E511CF801A080B18036FE03C01E
S1131EC0692D70E002C06FEF7FEFC5012DD14C0189
S1131ED0F32DF0683F2E820133FC19C0822D90E06F
S1131EE088169906A0F4B60180E290E033D12A94D2
S1131EF0F5CFF50137FC859137FE81915F01B6017D
S1131F0090E028D121102A9421E0821A91088114AA
S1131F10910479F7E1C0843611F0893639F5F80176
S1131F2037FE07C060817181828193810C5F1F4FEE
S1131F3008C060817181072E000C880B990B0E5F1D
S1131F401F4FF32DFF763F2E97FF09C09095809584
S1131F50709561957F4F8F4F9F4FF0683F2E2AE019
S1131F6030E0A30133D1882E861844C0853731F47C
S1131F70232D2F7EB22E2AE030E025C0932D997FA9
S1131F80B92E8F36C1F018F4883579F0AEC0803799
S1131F9019F0883721F0A9C0E92FE061BE2EB4FE04
S1131FA00DC0FB2DF460BF2E09C034FE0AC0292FDA
S1131FB02660B22E06C028E030E005C020E130E003
S1131FC002C020E132E0F801B7FE07C060817181F0
S1131FD0828193810C5F1F4F06C06081718180E014
S1131FE090E00E5F1F4FA301F1D0882E8618FB2DC1
S1131FF0FF773F2E36FE0DC0232D2E7FA22E89148F
S113200058F434FE0BC032FC09C0832D8E7EA82EFA
S113201005C0B82CA32C03C0B82C01C0B92CA4FE55
S11320200FC0FE01E80DF11D8081803321F49A2D4B
S1132030997EA92E09C0A2FE06C0B394B39404C02D
S11320408A2D867809F0B394A3FC10C0A0FE06C0C4
S1132050B21480F4280C922C9B180DC0B21458F4BE
S1132060B60180E290E076D0B394F8CFB21418F4BD
S11320702B1802C0982C212CA4FE0FC0B60180E3BB
S113208090E068D0A2FE16C0A1FC03C088E790E0EF
S113209002C088E590E0B6010CC08A2D867851F024
S11320A0A1FE02C08BE201C080E2A7FC8DE2B60172
S11320B090E050D0891430F4B60180E390E04AD027
S11320C09A94F8CF8A94F301E80DF11D8081B6014A
S11320D090E040D08110F6CF222009F44ECEB60114
S11320E080E290E037D02A94F7CFF6018681978179
S11320F002C08FEF9FEF2B960FB6F894DEBF0FBE92
S1132100CDBFDF91CF911F910F91FF90EF90DF90A2
S1132110CF90BF90AF909F908F907F906F905F9083
S11321204F903F902F900895FC01059061507040AE
S11321300110D8F7809590958E0F9F1F0895FC018C
S11321406150704001900110D8F7809590958E0FE2
S11321509F1F08950F931F93CF93DF93FB01238158
S113216021FD03C08FEF9FEF2CC022FF16C04681D4
S11321705781248135814217530744F4A081B181EA
S11321809D012F5F3F4F318320838C9326813781BC
S11321902F5F3F4F3783268314C08B01EC01FB0173
S11321A00084F185E02D0995892BE1F6D801169676
S11321B08D919C911797019617969C938E931697E1
S11321C0CE01DF91CF911F910F910895FA01AA27B3
S11321D0283051F1203181F1E8946F936E7F6E5F66
S11321E07F4F8F4F9F4FAF4FB1E03ED0B4E03CD014
S11321F0670F781F891F9A1FA11D680F791F8A1FF7
S1132200911DA11D6A0F711D811D911DA11D20D05D
S113221009F468943F912AE0269F11243019305D17
S11322203193DEF6CF010895462F4770405D419308
S1132230B3E00FD0C9F7F6CF462F4F70405D4A3355
S113224018F0495D31FD4052419302D0A9F7EACF1D
S1132250B4E0A6959795879577956795BA95C9F74C
S113226000976105710508959B01AC010A2E06943F
S11322705795479537952795BA95C9F7620F731FF8
S10F2280841F951FA01D0895F894FFCF43
S113228CC34CDC4300E1E54301696E697469616C1C
S113229C697A65002E2E2E2E2E00256C64672C2058
S11322AC7374617274200A002025752067204861BC
S11322BC6E67696E672000205072657373207374A7
S11322CC6172742020200046697273745F68756DA6
S11322DC6964203D2025642E256425630A00546F0F
S11322EC74616C5F6772616D203D2025640A005334
S11322FC7461727420447279202020202000726F43
S113230C6C6C696E672E2E2E202020200025642EE6
S113231C2564256320202025642E25644320202059
S113232C00256C64206D4C20647269656420200067
S113233C2564200A006D656173757265004C7765C0
S113234C6967687420256420657874656D70202530
S113235C642E25642068756D692025642E25640A15
S113236C0025642E256425632025642E25644300F2
S113237C2520202020202020202020202020202048
S113238C0025642E256425632025642E25644320B2
S10B239C25642025640A0000F9
S9030000FC
